:020000021000EC
:1040000000400020A5EA0100E1EA0100E3EA010026
:1040100000000000000000000000000000000000A0
:10402000000000000000000000000000E5EA0100C0
:104030000000000000000000E7EA0100E9EA0100DA
:10404000EBEA0100EBEA01003D8F0100EBEA010021
:10405000EBEA010000000000AD6E0100EBEA010098
:10406000EBEA0100EBEA0100EBEA0100EBEA0100F8
:10407000EBEA0100EBEA0100EBEA0100EBEA0100E8
:10408000EBEA01002D830100EBEA0100EBEA0100FD
:1040900079830100EBEA0100799A0100EBEA010063
:1040A000EBEA0100EBEA0100000000000000000064
:1040B0000000000000000000000000000000000000
:1040C00010B5064C2378002B07D1054B002B02D0EE
:1040D000044800E000BF0123237010BD4C240020E1
:1040E00000000000E414020008B5084B002B03D0C8
:1040F0000748084900E000BF07480368002B03D0C9
:10410000064B002B00D0984708BDC04600000000B9
:10411000E414020050240020482400200000000085
:10412000164B002B00D1144B9D46402292029A1A46
:10413000924600218B460F461348144A121A0CF07F
:104140003DFC0F4B002B00D098470E4B002B00D0AE
:1041500098470020002104000D000D48002802D0DF
:104160000C480CF029FD0CF04BFB2000290000F05E
:1041700019F90CF035FBC046000008000040002093
:1041800000000000000000004C2400203832002015
:10419000B90B0200C90B020070DF7047181CC04643
:1041A00071DF7047181CC04672DF7047181CC0468C
:1041B00073DF7047181CC04674DF7047181CC04678
:1041C00075DF7047181CC04676DF7047181CC04664
:1041D00077DF7047181CC04678DF7047181CC04650
:1041E00079DF7047181CC0467ADF7047181CC0463C
:1041F0007BDF7047181CC0467CDF7047181CC04628
:104200007DDF7047181CC0467EDF7047181CC04613
:104210007FDF7047181CC04680DF7047181CC046FF
:1042200081DF7047181CC04682DF7047181CC046EB
:1042300083DF7047181CC04684DF7047181CC046D7
:10424000B0DF7047181CC046B1DF7047181CC0466D
:10425000B2DF7047181CC04690DF7047181CC0467C
:1042600091DF7047181CC04692DF7047181CC0468B
:1042700093DF7047181CC04694DF7047181CC04677
:1042800095DF7047181CC04696DF7047181CC04663
:1042900097DF7047181CC04698DF7047181CC0464F
:1042A000A0DF7047181CC046A1DF7047181CC0462D
:1042B000A2DF7047181CC046A3DF7047181CC04619
:1042C000A4DF7047181CC046A5DF7047181CC04605
:1042D000A6DF7047181CC046A7DF7047181CC046F1
:1042E000A8DF7047181CC046A9DF7047181CC046DD
:1042F000AADF7047181CC04660DF7047181CC04614
:1043000061DF7047181CC04662DF7047181CC0464A
:1043100063DF7047181CC04664DF7047181CC04636
:1043200065DF7047181CC04666DF7047181CC04622
:1043300080B582B000AF78600F4B1B785A1E934156
:10434000DBB201225340DBB21A1C01231340DAB264
:10435000094B1A70084B1B781A1C074B1B78002B53
:1043600001D0002300E00123101C191C02F080F989
:10437000BD4602B080BDC0466824002080B582B032
:1043800000AF021CFB1D1A70FB1D1B78002B02D016
:10439000012B02D002E0C04600E0C046BD4602B09C
:1043A00080BDC04680B584B002AF02F053FA00F081
:1043B00011FC3A1C1F4B101C01211A1C04F09AF826
:1043C000021CBB1D1A80BB1D1B88002B0ED0BB1D01
:1043D00018881949194A1A4B0090081C111C1A1CFC
:1043E000402302F003F9BB1D1B881EE03A688023BE
:1043F0001B02101C191C002204F0F4F8021C3B1DC7
:104400001A803B1D1B88002B0ED03B1D18880A49C3
:104410000A4A0B4B0090081C111C1A1C412302F085
:10442000E5F83B1D1B8800E0FEE7181CBD4602B006
:1044300080BDC04631430100D40C0200F80C0200DC
:10444000000D020070DF7047181CC04671DF704716
:10445000181CC04672DF7047181CC04673DF7047D7
:10446000181CC04674DF7047181CC04675DF7047C3
:10447000181CC04676DF7047181CC04677DF7047AF
:10448000181CC04678DF7047181CC04679DF70479B
:10449000181CC0467ADF7047181CC0467BDF704787
:1044A000181CC0467CDF7047181CC0467DDF704773
:1044B000181CC0467EDF7047181CC0467FDF70475F
:1044C000181CC04680DF7047181CC04681DF70474B
:1044D000181CC04682DF7047181CC04683DF704737
:1044E000181CC04684DF7047181CC046B0DF7047F8
:1044F000181CC046B1DF7047181CC046B2DF7047B9
:10450000181CC04690DF7047181CC04691DF7047EA
:10451000181CC04692DF7047181CC04693DF7047D6
:10452000181CC04694DF7047181CC04695DF7047C2
:10453000181CC04696DF7047181CC04697DF7047AE
:10454000181CC04698DF7047181CC046A0DF704793
:10455000181CC046A1DF7047181CC046A2DF704778
:10456000181CC046A3DF7047181CC046A4DF704764
:10457000181CC046A5DF7047181CC046A6DF704750
:10458000181CC046A7DF7047181CC046A8DF70473C
:10459000181CC046A9DF7047181CC046AADF704728
:1045A000181CC04660DF7047181CC04661DF7047AA
:1045B000181CC04662DF7047181CC04663DF704796
:1045C000181CC04664DF7047181CC04665DF704782
:1045D000181CC04666DF7047181CC04680B58AB0FC
:1045E00002AF3B1C1B3303221A70474A474B101C77
:1045F00001211A1C03F07EFF021C3B1C1E331A8093
:104600003B1C1E331B88002B10D03B1C1E3318880C
:104610003F49404A404B0090081C111C1A1C1C23A7
:1046200001F0E4FF3B1C1E331B8869E03B1D0022A8
:104630001A6000225A6000229A600022DA6000228A
:104640001A613B1D3A1C1B329A603B1D1A7B0F21DD
:104650008A4301210A431A733B1D197B0F220A402A
:1046600010210A431A733B1D5A7B0F218A435A7348
:104670003B1D597B0F220A405A733B1D9A7B0F2129
:104680008A439A733B1D997B0F220A409A733B1D04
:10469000DA7B0F218A4301210A43DA733B1DD97B60
:1046A0000F220A4010210A43DA733B1D1A7C0F21A6
:1046B0008A431A743B1D197C0F220A401A74174A48
:1046C0003B1D101C191C09F0B1FE021C3B1C1C33C5
:1046D0001A803B1C1C331B88002B10D03B1C1C3346
:1046E00018880B490B4A0C4B0090081C111C1A1C13
:1046F0002D2301F07BFF3B1C1C331B8800E00023B3
:10470000181CBD4608B080BD6C240020AD470100D8
:10471000080D02002C0D02003C0D0200E8310020C3
:1047200080B586B002AF78601A4A7B68101C191CED
:1047300009F050FC7B681B88102B02D0112B24D071
:1047400024E0154B64221A80144B1A6880231B0244
:10475000101C191C002203F045FF021C3B1C0E33E9
:104760001A803B1C0E331B88002B0DD03B1C0E33D4
:1047700018880B490B4A0C4B0090081C111C1A1C82
:104780004B2301F033FF01E000E0C046BD4604B01A
:1047900080BDC046E8310020702400206C24002039
:1047A000080D02002C0D02004C0D020080B586B0F1
:1047B00002AF78603B1C0833181C03F09DFFBB68F8
:1047C000181C03210AF0D6F90B1C9AB2254B1B8842
:1047D0009BB2D3189AB2234B1A80224B1B889BB2F0
:1047E000013B9AB21F4B1A801E4B1B889BB21E4A7C
:1047F000101C191C09F070FE021C3B1C0E331A80A1
:104800003B1C0E331B88002B29D03B1C0E331B880E
:10481000082B24D03B1C0E331A88144B9A421ED00E
:104820003B1C0E331A88124B9A4218D03B1C0C3397
:104830003A1C0E3212881A803B1C0C331B88002B4A
:104840000DD03B1C0C3318880A490B4A0B4B0090C7
:10485000081C111C1A1C722301F0C8FEFFE7BD469C
:1048600004B080BD70240020E83100200330000037
:1048700001340000080D02002C0D0200600D020042
:1048800080B500AFBFF34F8F024B034ADA60BFF32E
:104890004F8FFEE700ED00E00400FA0570DF70477F
:1048A000181CC04671DF7047181CC04672DF704785
:1048B000181CC04673DF7047181CC04674DF704771
:1048C000181CC04675DF7047181CC04676DF70475D
:1048D000181CC04677DF7047181CC04678DF704749
:1048E000181CC04679DF7047181CC0467ADF704735
:1048F000181CC0467BDF7047181CC0467CDF704721
:10490000181CC0467DDF7047181CC0467EDF70470C
:10491000181CC0467FDF7047181CC04680DF7047F8
:10492000181CC04681DF7047181CC04682DF7047E4
:10493000181CC04683DF7047181CC04684DF7047D0
:10494000181CC046B0DF7047181CC046B1DF704766
:10495000181CC046B2DF7047181CC04690DF704775
:10496000181CC04691DF7047181CC04692DF704784
:10497000181CC04693DF7047181CC04694DF704770
:10498000181CC04695DF7047181CC04696DF70475C
:10499000181CC04697DF7047181CC04698DF704748
:1049A000181CC046A0DF7047181CC046A1DF704726
:1049B000181CC046A2DF7047181CC046A3DF704712
:1049C000181CC046A4DF7047181CC046A5DF7047FE
:1049D000181CC046A6DF7047181CC046A7DF7047EA
:1049E000181CC046A8DF7047181CC046A9DF7047D6
:1049F000181CC046AADF7047181CC04660DF70470D
:104A0000181CC04661DF7047181CC04662DF704743
:104A1000181CC04663DF7047181CC04664DF70472F
:104A2000181CC04665DF7047181CC04666DF70471B
:104A3000181CC04620DF7047181CC04621DF704795
:104A4000181CC04622DF7047181CC04623DF704781
:104A5000181CC04624DF7047181CC04625DF70476D
:104A6000181CC04626DF7047181CC04627DF704759
:104A7000181CC04628DF7047181CC04629DF704745
:104A8000181CC0462ADF7047181CC0462BDF704731
:104A9000181CC0462CDF7047181CC0462DDF70471D
:104AA000181CC0462EDF7047181CC0462FDF704709
:104AB000181CC04632DF7047181CC04633DF7047F1
:104AC000181CC04630DF7047181CC04631DF7047E5
:104AD000181CC04634DF7047181CC04635DF7047CD
:104AE000181CC04636DF7047181CC04637DF7047B9
:104AF000181CC04638DF7047181CC04639DF7047A5
:104B0000181CC0463ADF7047181CC0463BDF704790
:104B1000181CC0463CDF7047181CC0463EDF70477B
:104B2000181CC0463FDF7047181CC04640DF704766
:104B3000181CC0463DDF7047181CC04641DF704757
:104B4000181CC04642DF7047181CC04643DF704740
:104B5000181CC04644DF7047181CC04645DF70472C
:104B6000181CC04646DF7047181CC04647DF704718
:104B7000181CC04648DF7047181CC04649DF704704
:104B8000181CC0464ADF7047181CC0464EDF7047ED
:104B9000181CC0464FDF7047181CC04651DF7047D5
:104BA000181CC04650DF7047181CC04652DF7047C3
:104BB000181CC04610DF7047181CC04611DF704734
:104BC000181CC04612DF7047181CC04613DF704720
:104BD000181CC04690B589B002AF4F4B0820191C75
:104BE0005022002304F0C6FE031C3B613B69FB60BE
:104BF000FB68002B06D0FA68484B101C8F211A1C4A
:104C000000F03EFA464B181C04F00EFF021C3B1C41
:104C10000A331A803B1C0A331B88002B10D03B1C24
:104C20000A3318883F493D4A3F4B0090081C111C2D
:104C30001A1C902301F0DAFC3B1C0A331B8866E047
:104C40003A4B181C04F004FF021C3B1C08331A806A
:104C50003B1C08331B88002B10D03B1C08331888E2
:104C600030492E4A304B0090081C111C1A1C91230D
:104C700001F0BCFC3B1C08331B8848E000F036F90F
:104C800000F0F0FA3B1C163300221A802BE03B1C8C
:104C900016331A88264BD200D358002B1CD03B1C4D
:104CA00016331A88224BD200D358BC1D9847031CD8
:104CB0002380BB1D1B88002B0ED0BB1D18881949F3
:104CC000164A194B0090081C111C1A1C9B2301F05A
:104CD0008DFCBB1D1B881AE03B1C16331A883B1C3D
:104CE000163301321A803B1C16331B880D2BCED98C
:104CF0003B1D00221A80C0460D4A0E4B101C0E218F
:104D00001A1C002300F08EFC00F03CFE0023181C4F
:104D1000BD4607B090BDC04674240020F00D0200CF
:104D2000514D0100F80D0200540E0200394D0100F2
:104D3000800D02007424002080B582B000AF78603E
:104D40007B68181C08F0A8FABD4602B080BDC046BA
:104D500080B588B002AF78607B68181C06F02EFD25
:104D60007B68181C07F05AFC3B1C163300221A8083
:104D70001BE03B1C16331B88564ADB00D318043358
:104D80001B68002B0AD03B1C16331B88514ADB00E2
:104D9000D31804331B687A68101C98473B1C1633E1
:104DA0001A883B1C163301321A803B1C16331B88B1
:104DB0000D2BDED93B1C143300221A80C0467B68C1
:104DC0001B88132B4DD004DC102B0CD0112B28D0BA
:104DD0007DE0392B00D179E0552B00D176E0192BFD
:104DE00000D16BE073E07B689A883B4B1A8003F03C
:104DF000FBFD021C3B1C12331A803B1C12331B8828
:104E0000002B0DD03B1C123318883449344A354BE3
:104E10000090081C111C1A1CDF2301F0E7FB56E070
:104E200055E006F015FD021C3B1C10331A803B1C9C
:104E300010331B88002B0DD03B1C103318882749DA
:104E4000274A284B0090081C111C1A1CE42301F06F
:104E5000CDFB3CE0204B012252421A8000F092FD33
:104E600035E03A1C0832204B111C1A1C0623081C82
:104E7000111C1A1C0BF00EFD174B1A883B1C083333
:104E8000101C00211A1CFFF745FD021C3B1C0E33B1
:104E90001A803B1C0E331B88002B0ED03B1C0E339C
:104EA00018880E490E4A0F4B0090081C111C1A1C42
:104EB000F52301F09BFBC04609E008E07B689B7985
:104EC000002B02D100F05EFD01E000E0C046BD46CF
:104ED00006B080BD800D020004200020F80D020005
:104EE000F00D0200600E02001C0E020090B587B0AB
:104EF00002AF08F09FFA021C3B1C0E331A803B1CC9
:104F00000E331B88002B0ED03B1C0E331C883848F8
:104F10003849394A8A235B00009401F067FB3B1C47
:104F20000E331B885FE0354B5B6901330ED0334B8A
:104F30005A6980235B051B699BB2101C191C09F080
:104F4000D5FD031CDBB2013BDBB205E080235B0532
:104F50005B69DBB2013BDBB23A1C1370274B5B6928
:104F600001330ED0254B5A6980235B051B699BB228
:104F7000101C191C09F0BAFD031CDBB2033BDBB2A9
:104F800005E080235B055B69DBB2033BDBB23A1CC7
:104F90005370002001F004FC031C1A1C3B1C9A7087
:104FA0003B1C00225A603B1C154A9A603B1C181C93
:104FB00006F036FE021C3B1C0C331A803B1C0C33E3
:104FC0001B88002B0ED03B1C0C331C880848094959
:104FD000094A90235B00009401F008FB3B1C0C3352
:104FE0001B8800E00023181CBD4605B090BDC046DC
:104FF000F80D0200F00D0200700E0200001000100B
:105000000550010090B587B002AF78603B1C0E33AD
:105010007A681A803B1C0E331B88002B0BD03B1C7C
:105020000E331C8805480649064A97235B00009406
:1050300001F0DCFAC046BD4605B090BDF80D020097
:10504000F00D0200840E020090B585B002AF021C84
:105050003960BB1D1A8006480649074A3E23FF33C4
:10506000064C009401F0C2FAC046BD4603B090BDA4
:10507000240E0200F00D02009C0E0200400E020001
:1050800090B589B002AFF860B9607A603B1C163306
:10509000FA681A803B1C16331B88002B0BD03B1C74
:1050A00016331C8806480749074A4E23FF330094ED
:1050B00001F09CFA01E0FFF7E3FBBD4607B090BDAD
:1050C000F80D0200F00D0200B00E020070DF704714
:1050D000181CC04671DF7047181CC04672DF70474D
:1050E000181CC04673DF7047181CC04674DF704739
:1050F000181CC04675DF7047181CC04676DF704725
:10510000181CC04677DF7047181CC04678DF704710
:10511000181CC04679DF7047181CC0467ADF7047FC
:10512000181CC0467BDF7047181CC0467CDF7047E8
:10513000181CC0467DDF7047181CC0467EDF7047D4
:10514000181CC0467FDF7047181CC04680DF7047C0
:10515000181CC04681DF7047181CC04682DF7047AC
:10516000181CC04683DF7047181CC04684DF704798
:10517000181CC046B0DF7047181CC046B1DF70472E
:10518000181CC046B2DF7047181CC04690DF70473D
:10519000181CC04691DF7047181CC04692DF70474C
:1051A000181CC04693DF7047181CC04694DF704738
:1051B000181CC04695DF7047181CC04696DF704724
:1051C000181CC04697DF7047181CC04698DF704710
:1051D000181CC046A0DF7047181CC046A1DF7047EE
:1051E000181CC046A2DF7047181CC046A3DF7047DA
:1051F000181CC046A4DF7047181CC046A5DF7047C6
:10520000181CC046A6DF7047181CC046A7DF7047B1
:10521000181CC046A8DF7047181CC046A9DF70479D
:10522000181CC046AADF7047181CC04660DF7047D4
:10523000181CC04661DF7047181CC04662DF70470B
:10524000181CC04663DF7047181CC04664DF7047F7
:10525000181CC04665DF7047181CC04666DF7047E3
:10526000181CC04690B593B002AFFA235B003B63B5
:105270003B6B9B00181C052109F038FC031C9AB2FB
:105280003B1C24331A80FA239B00FB62FB6A9B00C1
:10529000181C052109F02AFC031C9AB23B1C24337C
:1052A0005A803B1C243300229A803B1C2433C822A2
:1052B0005200DA803B1C20331A780F218A430121E7
:1052C0000A431A703B1C203319780F220A40102120
:1052D0000A431A70564B181C0BF0CEFB031C9BB2F2
:1052E000391C2031524A081C111C1A1CFFF71EFFE2
:1052F000021C3B1C3E331A803B1C3E331B88002B98
:1053000010D03B1C3E3318884A494B4A4B4B009007
:10531000081C111C1A1C502301F068F93B1C3E3379
:105320001B8881E080239B00181CFFF7EFFE021C06
:105330003B1C3C331A803B1C3C331B88002B10D099
:105340003B1C3C3318883B493B4A3C4B0090081CB3
:10535000111C1A1C512301F049F93B1C3C331B88DA
:1053600062E03B1C2433181CFFF7D8FE021C3B1CD8
:105370003A331A803B1C3A331B88002B10D03B1C5D
:105380003A3318882B492C4A2C4B0090081C111CCE
:105390001A1C522301F02AF93B1C3A331B8843E0C4
:1053A0000420FFF7AFFE021C3B1C38331A803B1C65
:1053B00038331B88002B10D03B1C383318881D490C
:1053C0001D4A1E4B0090081C111C1A1C532301F08F
:1053D0000DF93B1C38331B8826E03B1D184A13CAC5
:1053E00013C313CA13C312681A603B1D181C06F0BE
:1053F000B7FF021C3B1C36331A803B1C36331B881C
:10540000002B10D03B1C363318880A490A4A0B4B34
:105410000090081C111C1A1C682301F0E7F83B1CC3
:1054200036331B8800E00023181CBD4611B090BD28
:10543000C40E0200C80E0200EC0E0200140F02009F
:10544000F80E020080B586B002AF78603B1C0E33C8
:105450007A681A803B1C0E331B88002B0DD03B1C36
:105460000E3318880649074A074B0090081C111C88
:105470001A1C7E2301F0BAF8C046BD4604B080BDB8
:10548000C80E0200EC0E0200240F020070DF70470D
:10549000181CC04671DF7047181CC04672DF704789
:1054A000181CC04673DF7047181CC04674DF704775
:1054B000181CC04675DF7047181CC04676DF704761
:1054C000181CC04677DF7047181CC04678DF70474D
:1054D000181CC04679DF7047181CC0467ADF704739
:1054E000181CC0467BDF7047181CC0467CDF704725
:1054F000181CC0467DDF7047181CC0467EDF704711
:10550000181CC0467FDF7047181CC04680DF7047FC
:10551000181CC04681DF7047181CC04682DF7047E8
:10552000181CC04683DF7047181CC04684DF7047D4
:10553000181CC046B0DF7047181CC046B1DF70476A
:10554000181CC046B2DF7047181CC04690DF704779
:10555000181CC04691DF7047181CC04692DF704788
:10556000181CC04693DF7047181CC04694DF704774
:10557000181CC04695DF7047181CC04696DF704760
:10558000181CC04697DF7047181CC04698DF70474C
:10559000181CC046A0DF7047181CC046A1DF70472A
:1055A000181CC046A2DF7047181CC046A3DF704716
:1055B000181CC046A4DF7047181CC046A5DF704702
:1055C000181CC046A6DF7047181CC046A7DF7047EE
:1055D000181CC046A8DF7047181CC046A9DF7047DA
:1055E000181CC046AADF7047181CC04660DF704711
:1055F000181CC04661DF7047181CC04662DF704748
:10560000181CC04663DF7047181CC04664DF704733
:10561000181CC04665DF7047181CC04666DF70471F
:10562000181CC046B0B5ACB002AFF8607A601A1C66
:105630003B1C0A3319803B1C08331A803B1C9B33EC
:1056400006221A703B1C9A3304221A703B1CA733A3
:105650001F221A703B1CA7331B78033BDAB23B1C9A
:10566000A7331A703B1CA7331B78033BDAB23B1CF1
:10567000A7331A703B1CA7331B78043BDAB23B1CE0
:10568000A7331A703B1C0A331A883B1C08331B884B
:10569000D318142B0CDDB549B54AB64BB64800906B
:1056A000081C111C1A1C582300F0A0FF042358E109
:1056B0003B1CA43300221A803B1C0A331B88002B9E
:1056C00050D03B1CA7331B78023BDAB23B1CA733FC
:1056D0001A703B1CA23300221A8035E03B1CA23317
:1056E0001B88DB00FA68D3181B68002B25D03B1CF5
:1056F000A4331A883B1CA2331B88C02149015B18C4
:1057000099B23B1C48339200D1523B1CA4331B88F6
:105710003A1C48329B00D31801229A703B1CA433D8
:105720003A1CA432128801321A803B1CA7331B7822
:10573000023BDAB23B1CA7331A703B1CA2331A8817
:105740003B1CA23301321A803A1CA2323B1C0A33A2
:1057500012881B889A4205D23B1CA7331B785BB288
:10576000002BBBDC3B1C08331B88002B4DD03B1CA3
:10577000A7331B78023BDAB23B1CA7331A703B1CE1
:10578000A03300221A8032E03B1CA0331A88131C7D
:10579000DB009B1A9B007A68D3189B7E012B1FD9D4
:1057A0003B1CA43319883B1CA0331A88131CDB0054
:1057B0009B1A9B007A68D3183A1C483289009B696F
:1057C0008B503B1CA4333A1CA432128801321A803D
:1057D0003B1CA7331B78103BDAB23B1CA7331A7073
:1057E0003B1CA0331A883B1CA03301321A803A1CA0
:1057F000A0323B1C083312881B889A4205D23B1CFE
:10580000A7331B785BB2002BBEDC3B1C103300229D
:105810001A6000225A6000229A600022DA60002298
:105820001A6100225A6100229A610022DA61002284
:105830001A6200225A6200229A620022DA62002270
:105840001A6300225A633B1C103301229A703B1CDE
:10585000103301229A803B1C10333A1C9B329A6011
:105860003B1C10333A1C9A32DA603B1C10333A1C52
:10587000A43212881A833B1C10333A1C4832DA6176
:105880003B1CA7331B785BB2022B49DD3B1CA733C3
:105890001B78023BDAB23B1CA7331A703B1CA733C0
:1058A00000241C57354B181C0BF0E6F8031C9C42D7
:1058B00001D2012300E002233A1C103213703B1C7A
:1058C00010331B78012B03D13B1CA7331B7800E05E
:1058D00000233A1C103253703B1CA7331C783B1C2E
:1058E000A7331D78254B181C0BF0C6F8031CDAB241
:1058F0003B1C9D33291C19703B1C9C331A703B1CAC
:105900009D333A1C9C3212781B78D8B2D1B28842AF
:1059100000D9131CDBB2E31ADAB23B1CA7331A70AE
:105920003B1C1033181C002104F082FE021C3B1C9F
:105930009E331A803B1C9E331B88002B10D03B1CCF
:105940009E3318880E490A4A0A4B0090081C111C05
:105950001A1C922300F04AFE3B1C9E331B8800E079
:105960000023181CBD462AB0B0BDC046340F02004B
:10597000500F0200B40F0200640F0200780F020003
:105980007C0F020090B589B002AF3B1C134A13CACA
:1059900013C303CA03C33B1C181CFFF783FD021C7F
:1059A0003B1C16331A803B1C16331B88002B10D06F
:1059B0003B1C163318880A490A4A0B4B0090081CF6
:1059C000111C1A1CAA2300F011FE3B1C16331B8865
:1059D00000E00023181CBD4607B090BDA00F0200D8
:1059E0007C0F0200500F0200CC0F020080B582B085
:1059F00000AF786010E00D230D2B06D17B681B787B
:105A00000A2B02D10D2003F0EFFC7B685A1C7A6050
:105A10001B78181C03F0E8FC7B681B78002BEAD18C
:105A20000023181CBD4602B080BDC04680B582B0C0
:105A300000AF78600A1CFB1C1A707B68FA1C127895
:105A40001A700123181CBD4602B080BD80B586B017
:105A500000AFF8607A603B603B1C0B330A1C1A7085
:105A600000237B610AE0FB685A1CFA603A68511C0B
:105A7000396012781A707B6901337B613B681B784F
:105A8000002BF0D17A687B69D31A7B600CE0FB684D
:105A90005A1CFA603A1C0B3212781A707B69013377
:105AA0007B617B68013B7B607B68002BEFDC7B6963
:105AB000181CBD4606B080BD80B586B000AFF8604A
:105AC0007A603B603B1C0B330A1C1A7000237B611D
:105AD0007B68013B7B603B68092B13D93B68181C32
:105AE0000A2109F003F8031CF8683A1C0B321178FC
:105AF0007A68FFF7E1FF031C7B617B69FA68D318C2
:105B0000FB6014E010E0FA683B1C0B331B78101CA0
:105B1000191CFFF78BFFFB680133FB607B690133C6
:105B20007B617B68013B7B607B68002BEBDC3B6827
:105B3000181C0A2109F01EF80B1CDBB23033DBB253
:105B4000FA68101C191CFFF771FF031C7A69D3183F
:105B50007B617B69181CBD4606B080BD80B586B0F0
:105B600000AFF8607A603B603B1C0B330A1C1A7074
:105B700000237B613B68002B03DA3B685B423B619F
:105B800001E03B683B617B68013B7B603B69092B23
:105B900027D93B68002B10DA3B69181C0A2108F052
:105BA000A5FF031C5B42F8683A1C0B3211787A6837
:105BB000FFF7D4FF031C7B610EE03B69181C0A2130
:105BC00008F094FF031CF8683A1C0B3211787A68CD
:105BD000FFF7C4FF031C7B617B69FA68D318FB6085
:105BE0002AE03B68002B03DA7B68013B7B6011E015
:105BF00010E0FA683B1C0B331B78101C191CFFF7D4
:105C000015FFFB680133FB607B6901337B617B68B7
:105C1000013B7B607B68002BEBDC3B68002B0BDAE5
:105C2000FB68181C2D21FFF701FF031C7A69D318AC
:105C30007B61FB680133FB603B69181C0A2108F09B
:105C400099FF0B1CDBB23033DBB2FA68101C191C55
:105C5000FFF7ECFE031C7A69D3187B617B69181C83
:105C6000BD4606B080BDC04690B589B002AFF860B1
:105C70007A601A1C3B1C0B3319703B1C0A331A70D8
:105C800000237B617B68013B7B60BB6A1B0915D0ED
:105C9000BB6A1C09F8683B1C0B3319787A683B1CFB
:105CA0000A331B780094FFF7DFFF031C7A69D318CF
:105CB0007B617B69FA68D318FB6014E010E0FA6836
:105CC0003B1C0B331B78101C191CFFF7AFFEFB6845
:105CD0000133FB607B6901337B617B68013B7B6047
:105CE0007B68002BEBDCBA6A0F231340092B0CD81E
:105CF000BB6ADAB20F231340DBB23033DBB2FA688F
:105D0000101C191CFFF792FE1DE03B1C0A331B7888
:105D1000002B0CD0BB6ADAB20F231340DBB237334F
:105D2000DBB2FA68101C191CFFF780FE0BE0BB6A9F
:105D3000DAB20F231340DBB25733DBB2FA68101C20
:105D4000191CFFF773FE7B6901337B617B69181CAB
:105D5000BD4607B090BDC04690B589B000AFF860B1
:105D60007A603B1C0B330A1C1A700023FB61386BF2
:105D7000796B384B364A08F01FFF031C002B11D0FB
:105D8000FB69FA68D318181C2D21FFF74FFE031C7E
:105D9000FA69D318FB613B6B3B637B6B8022120675
:105DA00053407B63386B796B0AF08AFC031CBB6140
:105DB000B8690AF0B9FC031C0C1C386B796B1A1C0F
:105DC000231C0AF047F9031C0C1C181C211C224A36
:105DD000224B09F0ADFE031C0C1C181C211C204A90
:105DE000204B08F011FF031C0C1C181C211C0AF08E
:105DF00067FC031C7B61FB69FA68D118BB693A1C1C
:105E00000B321278081C111C0122FFF755FE031CEF
:105E1000FA69D318FB61FB69FA68D318181C2E21A4
:105E2000FFF704FE031CFA69D318FB61FB69FA68EB
:105E3000D2187B69101C30210622FFF73DFE031C9F
:105E4000FA69D318FB61FB69181CBD4609B090BD07
:105E500000000000000000000000000080842E41CF
:105E6000000000000000E03F90B589B000AFF8608E
:105E70007A603B1C0B330A1C1A700023FB61002361
:105E8000BB61386B796B6F4B6D4A08F095FE031C54
:105E9000002B00D11FE0FB69FA68D318181C2D21D4
:105EA000FFF7C4FD031CFA69D318FB613B6B3B632E
:105EB0007B6B8022120653407B630CE0386B796B5E
:105EC000614A624B09F0C4F9031C0C1C3B637C6300
:105ED000BB690133BB61386B796B5B4A5B4B08F084
:105EE00089FE031C002BE9D1386B796B554B544A62
:105EF00008F05CFE031C002B16D10CE0386B796BAC
:105F0000514A524B09F014FE031C0C1C3B637C638A
:105F1000BB69013BBB61386B796B4D4A4D4B08F057
:105F20004BFE031C002BE9D1386B796B0AF0C8FBE0
:105F3000031C7B6178690AF0F7FB031C0C1C386BAF
:105F4000796B1A1C231C0AF085F8031C0C1C181C06
:105F5000211C414A414B09F0EBFD031C0C1C181C91
:105F6000211C3F4A3F4B08F04FFE031C0C1C181C21
:105F7000211C0AF0A5FB031C3B61FB69FA68D118E0
:105F80007B693A1C0B321278081C111C0122FFF7A6
:105F900093FD031CFA69D318FB61FB69FA68D318F7
:105FA000181C2E21FFF742FD031CFA69D318FB6170
:105FB000FB69FA68D2183B69101C30210622FFF7F2
:105FC0007BFD031CFA69D318FB61FB69FA68D318DF
:105FD000181C4521FFF72AFD031CFA69D318FB6141
:105FE000BB69002B0BDBFB69FA68D318181C2B214B
:105FF000FFF71CFD031CFA69D318FB610DE0FB6978
:10600000FA68D318181C2D21FFF710FD031CFA693C
:10601000D318FB61BB695B42BB61FB69FA68D218AC
:10602000BB69101C30210222FFF798FD031CFA699E
:10603000D318FB61FB69181CBD4609B090BDC04672
:1060400000000000000000000000000000002440EC
:10605000000000000000F03F0000000080842E419E
:10606000000000000000E03F90B589B000AFF8608C
:106070007A603B1C0B330A1C1A700023FB6100235F
:10608000BB61386B796B6F4B6D4A08F095FD031C53
:10609000002B00D11FE0FB69FA68D318181C2D21D2
:1060A000FFF7C4FC031CFA69D318FB613B6B3B632D
:1060B0007B6B8022120653407B630CE0386B796B5C
:1060C000614A624B09F0C4F8031C0C1C3B637C63FF
:1060D000BB690333BB61386B796B5B4A5B4B08F080
:1060E00089FD031C002BE9D1386B796B554B544A61
:1060F00008F05CFD031C002B16D10CE0386B796BAB
:10610000514A524B09F014FD031C0C1C3B637C6389
:10611000BB69033BBB61386B796B4D4A4D4B08F053
:106120004BFD031C002BE9D1386B796B0AF0C8FAE0
:10613000031C7B6178690AF0F7FA031C0C1C386BAE
:10614000796B1A1C231C09F085FF031C0C1C181CFE
:10615000211C3D4A3D4B09F0EBFC031C0C1C181C98
:10616000211C3D4A3D4B08F04FFD031C0C1C181C24
:10617000211C0AF0A5FA031C3B61FB69FA68D118DF
:106180007B693A1C0B321278081C111C0122FFF7A4
:1061900093FC031CFA69D318FB61FB69FA68D318F6
:1061A000181C2E21FFF742FC031CFA69D318FB616F
:1061B000FB69FA68D2183B69101C30210322FFF7F3
:1061C0007BFC031CFA69D318FB61FB69FA68D318DE
:1061D000181C4521FFF72AFC031CFA69D318FB6140
:1061E000BB69002B0BDBFB69FA68D318181C2B2149
:1061F000FFF71CFC031CFA69D318FB610DE0FB6977
:10620000FA68D318181C2D21FFF710FC031CFA693B
:10621000D318FB61BB695B42BB61FB69FA68D218AA
:10622000BB69101C30210222FFF798FC031CFA699D
:10623000D318FB61FB69181CBD4609B090BDC04670
:1062400000000000000000000000000000408F403F
:10625000000000000000F03F000000000000E03FF0
:1062600090B58BB002AFF860B9607A603B600023F4
:10627000BB6100237B61FB68002B03D0FB6800221D
:106280001A702FE12EE17B681B78252B0BD0FB6861
:106290005A1CFA607A68511C796012781A707B690E
:1062A00001337B611EE17B6801331B78252B0BD109
:1062B000FB685A1CFA6025221A707B6802337B60E7
:1062C0007B6901337B610DE13B1C1F3320221A7077
:1062D0003B1C1E3300221A707B6801337B607B6895
:1062E0001B78302B06D13B1C1F3330221A707B6881
:1062F00001337B607B681B782D2B03D17B680133D6
:106300007B6013E012E03B1C1E331B781A1C9200CA
:10631000D318DB18DAB27B681B78D318DAB23B1CCF
:106320001E33303A1A707B6801337B607B681B78C0
:106330002F2B03D97B681B78392BE4D93B1C1E33E8
:106340001A787B69D3181A1CBB689A4207D9BB68B4
:10635000D9B27B69DAB23B1C1E338A1A1A707B6889
:106360001B78453B332B00D9AEE09A006D4BD31818
:106370001B689F463B1C1E331A783B68191D396009
:106380001B68F868391C1F310978FFF7E7FB031C0D
:10639000BB619CE03B1C1E331A783B68191D3960B9
:1063A0001B68F868391C1F310978FFF785FB031C4F
:1063B000BB618CE03B1C1E331A783B680733072116
:1063C0008B43191C083139605C681B68F868391CFC
:1063D0001F31097800930194FFF7BEFC031CBB61D9
:1063E00075E03B1C1E331A783B68073307218B434B
:1063F000191C083139605C681B68F868391C1F314A
:10640000097800930194FFF72FFD031CBB615EE048
:106410003B1C1E331A783B68073307218B43191C3A
:10642000083139605C681B68F868391C1F310978CD
:1064300000930194FFF718FE031CBB6147E03B1C6F
:106440001E331A783B68191D39601868F9683B1CBF
:106450001F331B780090081C191C0023FFF704FC55
:10646000031CBB6133E03B1C1E331A783B68191DCB
:1064700039601868F9683B1C1F331B780090081CB2
:10648000191C0123FFF7F0FB031CBB611FE03B1C41
:106490001E331A783B68191D39601B68F868391C6F
:1064A0001F310978FFF7D2FA031CBB610FE03B688C
:1064B0001A1D3A601B68DBB2FA68101C191CFFF742
:1064C000B5FA031CBB6102E001235B4225E07B6857
:1064D00001337B60BB69FA68D318FB607A69BB69DA
:1064E000D3187B617B681B78002B04D07A69BB686A
:1064F0009A4200D2C7E67A69BB689A4203D2FB6827
:1065000000221A7008E0FB68013BFB60FB68002278
:106510001A707B69013B7B617B69181CBD4609B021
:1065200090BDC046E40F02000CB480B584B000AF4B
:10653000786039603B1C1C33BB6078683968BA6985
:10654000BB68FFF78DFE031CFB60FB68181CBD4693
:1065500004B080BC08BC02B01847C04680B584B007
:1065600000AFF860B9607A60F86880235900BA68B3
:106570007B68FFF775FE031C181CBD4604B080BD88
:1065800090B5CFB000AF78603960164B9C204000CA
:10659000C019C318144A13CA13C313CA13C313CAA6
:1065A00013C312CA12C312781A70391C38317A68B0
:1065B0003B68081C111C1A1CFFF7D0FF031CFF2BA3
:1065C00005DD3B1C0833181CFFF710FAFEE73B1CE7
:1065D0003833181CFFF70AFA031C181CBD464FB0CD
:1065E00090BDC046D0FEFFFFB41002000FB480B5CE
:1065F00082B000AF3B1C14333B603A693B68101C0F
:10660000191CFFF7BDFF031C7B607B68181CBD468F
:1066100002B080BC08BC04B01847C0460EB480B5B8
:1066200085B000AF78603B1C2033BB607968FA69A5
:10663000BB68081C111C1A1CFFF790FF031CFB60B1
:10664000FB68181CBD4605B080BC08BC03B01847E9
:1066500080B582B000AF7860A023DB057A68C132D4
:10666000FF3292000121D150BD4602B080BDC0462C
:1066700080B588B000AF0A1CFB1D011C1970BB1D42
:106680001A70A023DA053B1C1F33B91D0978197055
:106690000023BB6100237B6115E03B1C1F3319788D
:1066A0007B69194101230B400AD021497B69CB1832
:1066B0001B780121081C9840031CB9690B43BB617E
:1066C0007B6901337B617B69012BE6D9BB69191CAE
:1066D000184BD150A023DA053B1C1333F91D097860
:1066E00019700023FB600023BB6015E03B1C1333D3
:1066F0001978BB68194101230B400AD00C49BB68CB
:10670000CB181B780121081C9840031CF9680B4327
:10671000FB60BB680133BB60BB68012BE6D9FB683B
:10672000191CA123DB00D150BD4608B080BDC04676
:10673000E41002000C05000080B584B000AF021C1C
:10674000FB1D1A703B1C0F33FA1D12781A703B1C8C
:106750000E3300221A7014E03B1C0E331B780F4AD4
:10676000D35C3A1C0F3212789A4203D13B1C0E3391
:106770001B780CE03B1C0E331A783B1C0E330132A5
:106780001A703B1C0E331B78012BE5D90023181C13
:10679000FDF7F4FDBD4604B080BDC046E810020020
:1067A00080B588B002AF021CFB1D1A7000237B610C
:1067B000FB1D1B78114AD25C3B1C0F33101C191CAB
:1067C00002F04EF9031C3B617A693B699A420ED094
:1067D0000B490C4A0C4B7869009038690190081CF1
:1067E000111C1A1C5A23FFF701FF002302E03B1C77
:1067F0000F331B78181CBD4606B080BDE8100200A0
:10680000EC1002001C1102008811020080B584B057
:1068100002AF78607B681B78012B03D07B681B7804
:10682000022B0BD10749084A084B09480090081C65
:10683000111C1A1C6723FFF7D9FEC046BD4602B0E3
:1068400080BDC046341102001C1102009C110200E0
:106850005011020080B594B002AFB24B00220092FA
:1068600000200821062201F08DFD031C3B643B6CD7
:10687000FB63FB6B002B06D0FA6BAB4B101C942117
:106880001A1CFEF7FDFBA94B0120191C00F0C0FBF0
:10689000031CBB63BB6B7B637B6B002B06D07A6BEB
:1068A000A14B101C97211A1CFEF7EAFB3B1C473337
:1068B00000221A700EE03B1C47331B789C4AD35CC5
:1068C000181CFFF7C5FE3B1C47331A783B1C4733A7
:1068D00001321A703B1C47331B78012BEBD93B1C50
:1068E000463300221A7021E03B1C46331B783A1CC9
:1068F000463212788F49885C8F4AD90088548E4975
:10690000DA008A18002151708B49DA008A180321B5
:106910009170894ADB00D3180433884A1A603B1C03
:1069200046331A783B1C463301321A703B1C4633FF
:106930001B78012BD8D9804A814B101C02211A1CCC
:10694000002301F0C7FF031C3B633B6BFB62FB6A48
:10695000002B06D0FA6A744B101CAD211A1CFEF7EE
:106960008FFB3B1C14330B221A703B1C143309227F
:106970005A703B1C143308229A703B1C14330A22B1
:10698000DA703B1C143301221A713B1C14330022B1
:106990005A7196239B013B623B6A962212029342F4
:1069A00000D15FE096221202934221D896229201F2
:1069B00093424ED09622920193420CD89622120115
:1069C000934241D096225201934240D09622D20067
:1069D000934236D05AE09622D20193423ED0E12231
:1069E000D20193423CD0E1229201934233D04DE058
:1069F000E122920293423DD0E122920293420CD8CE
:106A000096225202934231D0E122520293422FD079
:106A1000E1221202934227D038E0E122D2029342CF
:106A20002DD0E122D202934203D8464A934223D08A
:106A30002CE0E1221203934223D0434A934222D016
:106A400024E09E23DB022DE09D231B032AE03F4B25
:106A500028E03F4B26E0EC239B0323E03D4B21E065
:106A60003D4B1FE03D4B1DE03D4B1BE03D4B19E016
:106A70003D4B17E03D4B15E08023DB0412E03C4B1F
:106A800010E03C4B0EE080235B050BE03A49264AC0
:106A90003A4B3B480090081C111C1A1C8623FFF738
:106AA000A5FD00231A1C3B1C14339A603B1C1233B7
:106AB00000221A803B1C334A1A603B1C8022520081
:106AC0005A603B1C304A9A603B1C80225200DA60BC
:106AD000391C14313A1C2D4B381C12300090081C04
:106AE000111C1A1C032302F007FB031CBB623B1C96
:106AF0002633BA6A1A803B1C26331B88002B0DD024
:106B00003B1C263318882249074A224B0090081C58
:106B1000111C1A1CBD23FFF769FDFFE7BD4612B02B
:106B200080BDC046C42400201C110200142800208F
:106B3000E4100200E8100200282800203967010054
:106B40006606000090D0030040420F0000B0130022
:106B50000050270000A04E0000F0750000509D007E
:106B600000F0EB0000903A0100E0D70100B0AF0365
:106B700000705F07A4DFBE0E34110200C4110200D2
:106B80005011020038280020382900200D6801002B
:106B900064110200B811020080B584B000AFF86043
:106BA000B960BB1D1A80BB68002B01D10E231CE00D
:106BB000BB1D1B88002B06D0BB1D1B88013BBA1DCB
:106BC0001288134001D009230FE0FB68BA681A60ED
:106BD000BB1D1B88013B9AB2FB689A80FB680022B0
:106BE0009A60FB680022DA600023181CBD4604B0DE
:106BF00080BDC04680B582B000AF78600A1CFB1C27
:106C00001A707B68DA687B689B68D21A7B689B88FD
:106C10009A4211D87B681A687B68DB687968898832
:106C20000B40D318FA1C12781A707B68DB685A1C68
:106C30007B68DA60002300E00423181CBD4602B024
:106C400080BDC04680B582B000AF786039607B6897
:106C5000DA687B689B689A4211D07B681A687B6807
:106C60009B68796889880B40D3181A783B681A703A
:106C70007B689B685A1C7B689A60002300E00523B0
:106C8000181CBD4602B080BD80B582B000AF7860F0
:106C90007B68DA687B689A600023181CBD4602B0E6
:106CA00080BDC04680B582B000AF021CFB1D1A70CB
:106CB000064BFA1D1278111C1F220A400121081CE4
:106CC0009040021C1A60BD4602B080BD00E100E0A9
:106CD00080B582B000AF021CFB1D1A70084AFB1D74
:106CE0001B78191C1F230B400121081C9840031C12
:106CF000191CC0235B00D150BD4602B080BDC04608
:106D000000E100E0B0B582B000AF021C3960FB1DAD
:106D10001A70FB1D1B787F2B32D93049FB1D1B7865
:106D20001A1C0F231340083B98082C4AFB1D1B78A4
:106D30001C1C0F232340083B9B0806339B00D318E1
:106D40005B68FA1D1278141C03222240D200FF2433
:106D5000251C95402A1CD2431A403B689C01FF2306
:106D60001C40FB1D1B781D1C03232B40DB00251C36
:106D70009D402B1C1A43831D9B00CB185A6029E0B1
:106D8000174BFA1D127852B292081549F81D007877
:106D900040B28008C03080004158F81D0078041CC3
:106DA00003202040C000FF24251C8540281CC04330
:106DB000084039688C01FF210C40F91D09780D1C31
:106DC00003212940C900251C8D40291C0143C032E4
:106DD0009200D150BD4602B0B0BDC04600ED00E00B
:106DE00000E100E080B582B000AF78607A680323EC
:106DF00013405A425341DBB2181CBD4602B080BD5D
:106E000080B586B000AF7860396000237B6145E0D3
:106E10007B690122111C99400B1CFB603B68FA68DE
:106E2000134038D07B68DB68FA68134009D18023AF
:106E30009B023B617B68DA68FB681A437B68DA6017
:106E400009E0C0239B023B617B68DB68FA68D243A0
:106E50001A407B68DA60A023DB05A022D20579699D
:106E6000C131FF31890089580F4A11407A69C13216
:106E7000FF329200D150A023DB05A022D205796910
:106E8000C131FF31890089583A6911437A69C132A9
:106E9000FF329200D1507B6901337B617B691F2BEC
:106EA000B6D9BD4606B080BDFFFFFCFF80B586B0F9
:106EB00000AFA023DA05A223DB00D3583B612D4AA3
:106EC000BE235B000021D1503B1C173300221A70F7
:106ED00046E0294B19683B1C17331A78131C9B009A
:106EE0009B189B00CB18FB603B1C17331B780122BF
:106EF000111C99400B1C1A1C204B1B68134028D0F6
:106F0000FB68DB68DA433B695A40FB681B68134047
:106F1000BB60FA68BB68101C191CFFF771FF3B6966
:106F2000DA43FB689B681340BA6813407B60FB68D8
:106F30005B683A691340BA6813403B603A687B6803
:106F4000134306D0FB681B6939687A68081C111C5A
:106F500098473B1C17331A783B1C173301321A70C1
:106F6000074B1B783A1C173212789A42B1D3BD46B0
:106F700006B080BD00600040402A0020382A002072
:106F80003D2A002080B584B000AF021CFB1D1A70A2
:106F90000023FB6031E01C4B1968FB1D1A78131CA1
:106FA0009B009B189B00CB181B68FA680121081CEA
:106FB0009040021C13401DD0A023DB05A022D20567
:106FC000F968C131FF3189008958104A1140FA68C7
:106FD000C132FF329200D150A023DB05A022D2059E
:106FE000F968C131FF3189008958FA68C132FF322E
:106FF0009200D150FB680133FB60FB681F2BCAD99C
:10700000BD4604B080BDC046402A0020FFFFFCFF03
:1070100080B582B000AF021C3960FB1D1A703B685E
:10702000002B01D1072337E03B68181CFFF7DAFE7D
:10703000031C01225340DBB2002B01D007232BE0BD
:10704000174B3A681A60174BFA1D12781A70164BD4
:1070500000221A70154B00221A60114B1968114B4F
:107060001B781A1C131C9B009B189B00081C0021FA
:107070001A1C09F0A3FC0E4AC2239B0001214942BD
:10708000D1500620FFF724FE06200121FFF73AFE2B
:107090000620FFF707FE0023181CBD4602B080BD86
:1070A000402A00203C2A00203D2A0020382A0020C7
:1070B0000060004080B584B000AFF860B9607A60CD
:1070C0003B602B4B1B68002B01D108234CE03B6835
:1070D000002B01D1072347E0264B1A78264B1B785B
:1070E0009A4201D304233FE0214B1968214B1B78BE
:1070F0001A1C131C9B009B189B00CB18B9687A685C
:107100000A431A601A4B19681A4B1B781A1C131C75
:107110009B009B189B00CB18BA685A60144B1968E7
:10712000144B1B781A1C131C9B009B189B00CB183C
:107130007A689A600E4B19680E4B1B781A1C131C48
:107140009B009B189B00CB183A681A61094B1B786F
:107150005A1CD1B2074A1170FA681370FB681B7889
:10716000181CFFF70FFF0023181CBD4604B080BD9C
:10717000402A00203D2A00203C2A002080B586B00D
:1071800000AF021CFB1D1A704D4B1B68002B01D178
:10719000082391E04B4B1B78FA1D12789A4201D3D9
:1071A000072389E0484ABE235B000021D150A02379
:1071B000DA05A223DB00D358FB60444B1B68002B8D
:1071C00005D1414AC1239B0080210906D150FB1DF6
:1071D0001B780122111C99400B1C1A1C3B4B1B688D
:1071E0001A433A4B1A60364B1968FB1D1A78131C68
:1071F0009B009B189B00CB180022DA6000237B6168
:1072000056E07B690122111C99400B1CBB602C4B82
:107210001968FB1D1A78131C9B009B189B00CB1848
:107220001B68BA68134040D0FB68BA68134003D0AB
:10723000C0239B023B6118E080239B023B61204BF3
:107240001968FB1D1A78131C9B009B189B00CA1819
:107250001B4B1868FB1D19780B1C9B005B189B00CF
:10726000C318D968BB680B43D360A023DB05A022F9
:10727000D2057969C131FF3189008958144A11401A
:107280007A69C132FF329200D150A023DB05A022DF
:10729000D2057969C131FF31890089583A691143B2
:1072A0007A69C132FF329200D1507B6901337B6130
:1072B0007B691F2BA5D90023181CBD4606B080BDD5
:1072C000402A00203D2A002000600040382A00208B
:1072D000FFFFFCFF80B582B000AF021CFB1D1A70DF
:1072E000164B1B68002B01D1082323E0144B1B789D
:1072F000FA1D12789A4201D307231BE0FB1D1B786D
:10730000181CFFF73FFEFB1D1B780122111C994042
:107310000B1CDA430B4B1B681A400A4B1A60094BD3
:107320001B68002B05D1084AC2239B008021090657
:10733000D1500023181CBD4602B080BD402A002059
:107340003D2A0020382A00200060004080B584B02B
:1073500000AF021C3960FB1D1A70134B1B68002B19
:1073600001D108231CE0114B1B78FA1D12789A42B8
:1073700001D3072314E00C4B1968FB1D1A78131C6A
:107380009B009B189B00CB18FB60A023DA05A2236F
:10739000DB00D258FB681B681A403B681A60002368
:1073A000181CBD4604B080BD402A00203D2A0020A4
:1073B00080B582B000AF021CFB1D1A70064BFA1D8F
:1073C0001278111C1F220A400121081C9040021C47
:1073D0001A60BD4602B080BD00E100E080B582B019
:1073E00000AF021CFB1D1A70074AFB1D1B78191CFD
:1073F0001F230B400121081C9840031C191C8023EB
:10740000D150BD4602B080BD00E100E080B582B041
:1074100000AF021CFB1D1A70084AFB1D1B78191CCB
:107420001F230B400121081C9840031C191C8023BA
:107430005B00D150BD4602B080BDC04600E100E017
:1074400080B582B000AF021CFB1D1A70084AFB1DFC
:107450001B78191C1F230B400121081C9840031C9A
:10746000191CC0235B00D150BD4602B080BDC04690
:1074700000E100E0B0B582B000AF021C3960FB1D36
:107480001A70FB1D1B787F2B32D93049FB1D1B78EE
:107490001A1C0F231340083B98082C4AFB1D1B782D
:1074A0001C1C0F232340083B9B0806339B00D3186A
:1074B0005B68FA1D1278141C03222240D200FF24BC
:1074C000251C95402A1CD2431A403B689C01FF238F
:1074D0001C40FB1D1B781D1C03232B40DB00251CBF
:1074E0009D402B1C1A43831D9B00CB185A6029E03A
:1074F000174BFA1D127852B292081549F81D007800
:1075000040B28008C03080004158F81D0078041C4B
:1075100003202040C000FF24251C8540281CC043B8
:10752000084039688C01FF210C40F91D09780D1CB9
:1075300003212940C900251C8D40291C0143C0326C
:107540009200D150BD4602B0B0BDC04600ED00E093
:1075500000E100E080B582B000AF021CFB1D1A7094
:10756000FB1D1B787F2B16D9164AFB1D1B78191C97
:107570000F230B40083B9B0806339B00D3185A6827
:10758000FB1D1B78191C03230B40DB00DA40FF2393
:1075900013409B0911E00C4BFA1D127852B292086D
:1075A000C0329200D258FB1D1B78191C03230B40DC
:1075B000DB00DA40FF2313409B09181CBD4602B0D4
:1075C00080BDC04600ED00E000E100E080B582B083
:1075D00000AF0C4B5B68DB05DB0D7B607B68002B31
:1075E0000BD07B68103B3B603B68DBB25BB2181C86
:1075F000FFF7B0FF031CDBB200E00423181CBD46FC
:1076000002B080BD00ED00E080B582B000AF7860D0
:107610007A68032313405A425341DBB2181CBD461B
:1076200002B080BD20DF7047181CC04621DF7047C4
:10763000181CC04622DF7047181CC04623DF704765
:10764000181CC04624DF7047181CC04625DF704751
:10765000181CC04626DF7047181CC04627DF70473D
:10766000181CC04628DF7047181CC04629DF704729
:10767000181CC0462ADF7047181CC0462BDF704715
:10768000181CC0462CDF7047181CC0462DDF704701
:10769000181CC0462EDF7047181CC0462FDF7047ED
:1076A000181CC04632DF7047181CC04633DF7047D5
:1076B000181CC04630DF7047181CC04631DF7047C9
:1076C000181CC04634DF7047181CC04635DF7047B1
:1076D000181CC04636DF7047181CC04637DF70479D
:1076E000181CC04638DF7047181CC04639DF704789
:1076F000181CC0463ADF7047181CC0463BDF704775
:10770000181CC0463CDF7047181CC0463EDF70475F
:10771000181CC0463FDF7047181CC04640DF70474A
:10772000181CC0463DDF7047181CC04641DF70473B
:10773000181CC04642DF7047181CC04643DF704724
:10774000181CC04644DF7047181CC04645DF704710
:10775000181CC04646DF7047181CC04647DF7047FC
:10776000181CC04648DF7047181CC04649DF7047E8
:10777000181CC0464ADF7047181CC0464EDF7047D1
:10778000181CC0464FDF7047181CC04651DF7047B9
:10779000181CC04650DF7047181CC04652DF7047A7
:1077A000181CC04680B582B000AF7860C046C046A5
:1077B000C046C046C046C046C046C046C046C04699
:1077C000C046C046C046C0467B68013B7B60002B7C
:1077D000ECD1BD4602B080BD80B582B000AF78600C
:1077E000054AA123DB007968D15011200321FFF75E
:1077F00041FEBD4602B080BD0010014080B500AF23
:107800000C4AD1239B0080214902D150094AC1234F
:107810009B0080214902D1501120FFF711FE112059
:10782000FFF7C6FD034B01221A602F20FFF7BAFFB6
:10783000BD4680BD0010014080B500AF1120FFF7AC
:10784000CDFD0A4AD2239B0080214902D150074A2C
:10785000C2239B0080214902D150044B01225A606F
:107860002F20FFF79FFFBD4680BDC046001001409E
:1078700080B500AF024A034BD358181CBD4680BDEB
:10788000001001400405000080B582B000AF7860B0
:1078900039607A683B68D31A1B021B0A181CBD4664
:1078A00002B080BD80B582B000AF7860034AA823E3
:1078B000DB007968D150BD4602B080BD00100140A8
:1078C00080B586B000AF78604C4B19687A68131C9D
:1078D000DB009B189B00CB18BB60494B1B68013336
:1078E00003D1474B7A681A6084E0BB685968434B00
:1078F0001868434B1A68131CDB009B189B00C318C5
:107900005B6899421ED83D4B19683D4B1A68131CA1
:10791000DB009B189B00CA18384B1868384B196855
:107920000B1CDB005B189B00C3185968BB685B68C5
:10793000CB1A5360324B1A68BB681A62304B7A68B4
:107940001A6057E0BB685B68FB602D4B1B687B616E
:107950002B4B1B683B6117E0284B19683A69131CD5
:10796000DB009B189B00CB185B68FA68D31AFB609E
:107970003B697B61214B19683A69131CDB009B183A
:107980009B00CB181B6A3B613B6901330BD01B4B3F
:1079900019683A69131CDB009B189B00CB185A68C6
:1079A000FB689A42D8D33B69013313D0134B196853
:1079B0003A69131CDB009B189B00CA180F4B186810
:1079C00039690B1CDB005B189B00C3185968FB6806
:1079D000CB1A5360BB68FA685A60BB683A691A628E
:1079E000064B19687A69131CDB009B189B00CB18A7
:1079F0007A681A62BD4606B080BDC046482A00209B
:107A0000542A002080B586B000AF7860364B1B68E2
:107A10007B617B693B6110E03A697B689A4200D1E7
:107A20000EE03B697B61314B19683A69131CDB003E
:107A30009B189B00CB181B6A3B613B690133EBD160
:107A40003B69013300D14CE07A693B699A420BD122
:107A5000264B1968244B1A68131CDB009B189B00EB
:107A6000CB181A6A204B1A60204B19683A69131C0C
:107A7000DB009B189B00CB185B68FB601B4B1968F5
:107A80007A69131CDB009B189B00CA18174B1868F7
:107A900039690B1CDB005B189B00C3181B6A13625F
:107AA000124B19687A69131CDB009B189B00CB18DA
:107AB0001B6A3B613B69013313D00C4B19683A696F
:107AC000131CDB009B189B00CA18084B1868396907
:107AD0000B1CDB005B189B00C3185968FB68CB18B4
:107AE0005360BD4606B080BD542A0020482A0020BD
:107AF00080B500AF1120FFF789FCBD4680BDC046B0
:107B000080B500AF1420FFF781FCBD4680BDC046A4
:107B100080B584B000AF7860134B1B68002B1AD07F
:107B2000114B1A687B6899697B68DB69081C191C12
:107B30009047031CFB60FB68BB60BB68002B09D04F
:107B4000B968AA235A00094B081C111C1A1CFDF71E
:107B500097FA06E005E07B689A697B68DB69181C88
:107B60009047BD4604B080BD682A0020D4110200B1
:107B700080B584B000AF2B4B1B6801334FD000237E
:107B80007B60FFF775FE021C274B1B68101C191C3D
:107B9000FFF77AFE031CBB60224B1B68FB601FE0F3
:107BA000224B1968FA68131CDB009B189B00CB184A
:107BB0003B603B685A68BB689A4200D913E03B6857
:107BC0005B68BA68D31ABB603B685B687A68D31895
:107BD0007B603B681B6AFB603B68181CFFF798FFE3
:107BE000FB680133DCD1124B1A78124B1B789A4296
:107BF0000CD1104B1B780133DAB20E4B1A700D4BBF
:107C00001B78022B02D10B4B00221A70094B1B78F8
:107C10001A1C094B92007968D150FFF771FFBD46DD
:107C200004B080BD542A0020582A0020482A002091
:107C3000642A0020652A00205C2A002080B582B0DA
:107C400000AF7860184B1A78184B1B789A4223D0F3
:107C5000154B1B780133DAB2134B1A70124B1B7899
:107C6000022B02D1104B00221A700F4B1B781A1CEA
:107C70000F4B9200D2587B681A607B681A680D4BD4
:107C80001B68D2180B4B1A600A4B1B681B021A0A9E
:107C9000084B1A60012303E07B6800221A6000236E
:107CA000181CBD4602B080BD642A0020652A002051
:107CB0005C2A0020582A002080B586B000AF434BD4
:107CC0001B683B613B1C1733414A12781A7068E00D
:107CD000404B1A683B1C17331B78DB00D318FB6042
:107CE0003B1C1633FA6812781A7053E0FB68596827
:107CF0003B1C16331A78131C5B009B18DB00CB1857
:107D0000BB603B1C16331A783B1C163301321A70C9
:107D1000FB689B783A1C163212789A4203D13B1CBE
:107D2000163300221A70BB681B78022B02D0032B7B
:107D30002AD02FE0284B1968BB685A68131CDB0057
:107D40009B189B00CB187B607B681B7D002B08D0A9
:107D5000BB685B68181CFFF755FE7B6800221A752C
:107D600018E017E01C4B1968184B1A68131CDB004D
:107D70009B189B00CB183B603B6800221A753B6840
:107D80001A6A124B1A6000E0C046104B1B680133A0
:107D9000E8D1C046FB685B783A1C163212789A42EA
:107DA000A4D13B1C17331B783A1C1732591E117093
:107DB000002B8DD1054B1A683B69D31A5A1E93418B
:107DC000DBB2181CBD4606B080BDC046542A002058
:107DD0004C2A0020502A0020482A002080B588B074
:107DE00000AFF860B9607A600023FB6142E0254B88
:107DF0001968254B1A68131CDB009B189B00CB18D5
:107E0000BB61BB695A68FB689A4206D9BB695A686C
:107E1000FB68D21ABB695A6030E0BB695B68FA68DC
:107E2000D31AFB60BB695B68FA69D318FB61BB6955
:107E300000225A60BB6900221A75134B1B687B61D4
:107E4000BB691A6A104B1A60BB691B69002B11D001
:107E5000BA68FB69D3181B021A0ABB699A60BB692E
:107E60001A69BB69DA607B681A68BB691A627B6849
:107E70007A691A60044B1B680133B8D1BD4608B05B
:107E800080BDC046482A0020542A002080B58AB010
:107E900000AF7860624B1B68BB613B1C2733614AB3
:107EA00012781A70A7E0604B1A683B1C27331B78C6
:107EB000DB00D3187B6193E07B6801330ED07B68D5
:107EC0003B625A4B19683A6A131CDB009B189B00F3
:107ED000CB18FB61FB691B6A7B603EE07B695968DC
:107EE0007B691B781A1C131C5B009B18DB00CB18EA
:107EF0003B617B691B780133DAB27B691A707B695D
:107F00001A787B699B789A4202D17B6900221A70A9
:107F10003B695B683B62454B19683A6A131CDB009E
:107F20009B189B00CB18FB613B691B78012B03D18D
:107F3000FB691B7D002B00D052E03B699A68FB690E
:107F40009A603B69DA68FB69DA603B691A69FB6928
:107F50001A613B695A69FB69DA61FB699A68344BBB
:107F60001B68D31A1B021A0A324B9A420ED8FB69BD
:107F70009A682F4B1B68101C191CFFF785FC021C0C
:107F8000FB69DB68D218FB695A6018E0284B1A6855
:107F9000FB699B68101C191CFFF776FC031CFB6037
:107FA000FB69DA68FB689A4206D9FB69DA68FB6804
:107FB000D21AFB695A6002E0FB6900225A60FB6931
:107FC00000229A60FB690022DA60FB6901221A75BF
:107FD000FB69012252421A623B6A181CFFF770FCCF
:107FE0007B68013300D067E77B691A787B695B782F
:107FF0009A4200D060E73B1C27331B783A1C27329B
:10800000591E1170002B00D04DE7054B1A68BB6953
:10801000D31A5A1E9341DBB2181CBD460AB080BD6C
:10802000542A00204C2A0020502A0020482A0020F0
:10803000582A0020FEFF7F0090B589B000AF78601D
:10804000284B1B68013348D0274B1968254B1A6809
:10805000131CDB009B189B00CB185B68FB61FFF7D0
:1080600007FC031CBB61214B1B687B61BA697B6900
:10807000101C191CFFF708FC031C03333B617B68D1
:10808000013301D1FFF7BAFBFA693B69934200D291
:10809000131C7A69D3187B617B691B021B0A7B6105
:1080A0007B69181CFFF7FEFBFFF7E2FB031CFB607C
:1080B000FA68BB69101C191CFFF7E6FB031CDC1CEB
:1080C0007A69BB69101C191CFFF7DEFB031C9C427C
:1080D00002D9FFF70DFD02E001E0FFF7ADFBBD4661
:1080E00009B090BD542A0020482A0020582A0020B8
:1080F00090B587B000AF01235B427B601D4B1B68CE
:108100003B611D4B1B68FB603C1C0B343B1C181C6B
:10811000FFF794FD031C23703C1C1734FFF7CCFDC4
:10812000031C23703B1C0B331B78002B0BD03968CE
:108130003A693B1D081C111C1A1CFFF74FFE3B1C23
:10814000173301221A707B68181CFFF79FFE031C6F
:10815000002B03D03B1C173301221A703B1C173332
:108160001B78002B03D0FB68181CFFF765FFBD468A
:1081700007B090BD582A0020542A002080B582B054
:1081800000AF786039603B68DAB27B685A70BD46F0
:1081900002B080BD80B584B000AF786039607B6884
:1081A0005B780133FB607B689B781A1CFB689A4202
:1081B00001D10023FB607B681B781A1CFB689A4284
:1081C00001D100230EE03B68FA681A607B685968A9
:1081D0007B685B781A1C131C5B009B18DB00CB18B8
:1081E000BB60BB68181CBD4604B080BD80B586B0BE
:1081F00000AFF860B9607A603B601B4B1A68FB689F
:10820000DB00D2183B1C1033101C191CFFF7C2FFF7
:10821000031C7B617B69002B01D1042320E07B6977
:1082200001221A707B69BA685A60FFF721FB021CB1
:108230007B699A607B697A68DA607B693A681A615F
:108240007B693A6A5A61084B1A68FB68DB00D218EE
:108250003B69101C191CFFF791FFFFF751FC00232D
:10826000181CBD4606B080BD502A002080B584B0E1
:1082700000AF78603960144B1A687B68DB00D21855
:108280003B1C0833101C191CFFF784FF031CFB6008
:10829000FB68002B01D1042312E0FB6802221A7054
:1082A000FB683A685A60084B1A687B68DB00D21892
:1082B000BB68101C191CFFF761FFFFF721FC0023AE
:1082C000181CBD4604B080BD502A002080B584B083
:1082D00000AF7860144B1A687B68DB00D2183B1C37
:1082E0000833101C191CFFF755FF031CFB60FB68CB
:1082F000002B01D1042313E0FB6803221A70FB68F2
:10830000012252425A60084B1A687B68DB00D2187F
:10831000BB68101C191CFFF731FFFFF7F1FB0023AE
:10832000181CBD4604B080BD502A002080B500AFA7
:10833000104AA0235B000021D1500E4AA2235B000B
:108340000021D1500B4AA4235B000021D150094ADF
:10835000A6235B000021D150064A80235B00002148
:10836000D150044A82235B000021D150FFF700FC6A
:10837000BD4680BD0010014080B500AFFFF7B8FEDC
:10838000BD4680BD80B586B000AFF8607B603B1C09
:108390000B3319703B1C0A331A707B68181CFFF7EB
:1083A00033F9031C01225340DBB2002B01D0072319
:1083B00089E07B68002B01D1072384E0FFF73CFABA
:1083C000434B3A6A1A60434B3A1C0B3212781A70CC
:1083D000414B7A681A6000237B6116E03E4B1968B6
:1083E0007A69131CDB009B189B00CB1800221A70C3
:1083F000394B19687A69131CDB009B189B00CB185A
:1084000000221A757B6901337B613B1C0B331A78A0
:108410007B699A42E2DC3B1C0B331A78131CDB00AD
:108420009B189B007A68D3187B602C4B03221A7030
:108430002B4B7A681A607B6818337B6000237B6162
:1084400020E0274B1A687B69DB00D3183B613B694E
:1084500000221A703B6900225A703B693A1C0A32AA
:1084600012789A703B697A685A603B1C0A331A7812
:10847000131C5B009B18DB007A68D3187B607B6958
:1084800001337B617B69022BDBDD164B01225242FB
:108490001A60154B00221A70144B00221A70142017
:1084A000FEF7CEFF14200321FEF7E4FF1420FEF7B1
:1084B0007FFFFB68181CFFF78FF9FFF7D9F9021C43
:1084C0000B4B1A600023181CBD4606B080BDC04689
:1084D000682A0020442A0020482A00204C2A002034
:1084E000502A0020542A0020642A0020652A0020F7
:1084F000582A002080B586B000AFF8607A603B1C37
:108500000B330A1C1A70284B1B68002B01D108235F
:1085100046E07B68002B01D1072341E0FB68002B7C
:1085200001D107233CE000237B6132E01E4B196838
:108530007A69131CDB009B189B00CB181B78002B5F
:1085400024D1194B19687A69131CDB009B189B0016
:10855000CB1801221A70144B19687A69131CDB00BE
:108560009B189B00CB183A1C0B3212785A700E4B9A
:1085700019687A69131CDB009B189B00CB187A687A
:108580009A617A69FB681A60002309E07B6901330C
:108590007B61064B1B781A1C7B699A42C6DC04235C
:1085A000181CBD4606B080BD482A0020442A002081
:1085B00080B582B000AFFFF709F8031C012B02D091
:1085C000032B03D005E000237B6005E001237B60E3
:1085D00002E002237B60C0467B68181CBD4602B0E7
:1085E00080BDC04690B589B002AFF860B9607A60CE
:1085F0001D4B1B68002B01D1082330E01B4B1B785F
:108600001A1CFB689A4202D9BB68042B01D80723C5
:1086100025E0154B1968FA68131CDB009B189B00BA
:10862000CB181B78012B01D0082318E00E4B1968DA
:10863000FA68131CDB009B189B00CB185B78012B9E
:1086400001D1BB6800E000237B61FFF7B1FFF9684F
:10865000BA687B697C680094FFF7C8FD031C181C8E
:10866000BD4607B090BDC046482A0020442A0020DD
:1086700080B582B000AF7860134B1B68002B01D12E
:1086800008231DE0114B1B781A1C7B689A4201D805
:10869000072315E00C4B19687A68131CDB009B1844
:1086A0009B00CB181B78012B01D0082308E0FFF7B3
:1086B0007FFF021C7B68101C191CFFF7D7FD031CF1
:1086C000181CBD4602B080BD482A0020442A002064
:1086D00080B500AF074B1B68002B01D1082306E0D3
:1086E000FFF766FF031C181CFFF7F0FD031C181CA6
:1086F000BD4680BD482A002080B582B000AF7860BA
:10870000FFF7B6F8021C7B681A600023181CBD46F0
:1087100002B080BD80B584B000AFF860B9607A6007
:10872000FA68BB68101C191CFFF7AEF8021C7B68C6
:108730001A600023181CBD4604B080BD80B582B00D
:1087400000AF78600A1CFB1C1A70A023DB05FA1C22
:1087500012789200111C7A68C132FF329200D15017
:10876000BD4602B080BDC04680B584B000AF786021
:10877000124B1B68002B18D0104B1A687B68596885
:108780007B681B78081C191C9047031CFB60FB6866
:10879000BB60BB68002B07D0BA68094B101C2921AD
:1087A0001A1CFCF76DFC06E005E07B685B687A68E4
:1087B0001278101C9847BD4604B080BD802A002066
:1087C0002812020080B588B000AF78600023BB613A
:1087D0007B687B61274B1A783B1C0833101C191CE3
:1087E000FEF7B4FD031C3B613B69002B3FD1BA6827
:1087F000214B1B681340BB61BB68DA431F4B1B68EE
:108800001340BA691343BB617B69BA6913407B614A
:108810007B69002B2BD03B1C1F3300221A701FE0FA
:10882000174B1A683B1C1F331B78DB00D318FB6007
:10883000FB681B780122111C99400B1C7A691340BC
:1088400007D0FB685B68002B03D0FB68181CFFF7A0
:108850008BFF3B1C1F331A783B1C1F3301321A70ED
:10886000084B1B783A1C1F3212789A42D8D3BD4667
:1088700008B080BD842A0020782A0020742A0020B5
:108880006C2A0020702A002080B584B000AF786088
:1088900039600E4B1B68181CFFF7EAFE031CFB60D7
:1088A000FB68002B00D00DE0084B1968084B1A68D4
:1088B00078683B680343081C111C1A1CFFF792FEE2
:1088C000031CFB60BD4604B080BDC046882A002062
:1088D0007C2A002080B586B000AFF8607A603B60EB
:1088E0003B1C0B330A1C1A707B68042B01D807232E
:1088F00062E0334BFA681A60324B3A1C0B32127842
:108900001A70314B7A681A60304B3A681A60304BF3
:1089100000221A602F4B00221A602DE03B1C0B3303
:108920001B78DB00FA68D3187B617B691B781A1C03
:108930007B699B78101C191CFFF700FF7B695B7833
:108940001A1C7B691B78111C99400B1C1A1C204BAC
:108950001B681A431E4B1A607B695B78002B01D0A1
:10896000002300E001237A69127893401A1C194B06
:108970001B681A43174B1A603B1C0B331B783A1CBD
:108980000B32591E1170002BC8D1114B1968114BB5
:108990001A681148114BFEF78DFB031C3B613B69C4
:1089A000002B01D03B6907E00D4A0E4B101C002143
:1089B0001A1CFFF79FFD031C181CBD4606B080BDA6
:1089C0006C2A0020702A00207C2A0020802A0020A7
:1089D000782A0020742A0020842A00208988010037
:1089E000882A0020C587010080B500AF074B1B68AF
:1089F000002B01D1082305E0054B1B78181CFEF75E
:108A0000BDFB031C181CBD4680BDC0466C2A00205F
:108A1000842A002080B582B000AF0E4B1B68002B6B
:108A200001D1082311E00C4B1B78181CFEF752FCF7
:108A3000031C7B607B68002B01D07B6805E0074B43
:108A40001B68181CFFF714FE031C181CBD4602B05F
:108A500080BDC0466C2A0020842A0020882A00207D
:108A600080B586B000AF021C3960FB1D1A70002370
:108A70007B611C4B1B68002B01D108232DE01A4B96
:108A80001A783B1C0C33101C191CFEF75FFC031CEE
:108A90003B613B69002B01D03B691EE0FB1D1B784D
:108AA0000122111C99400B1C7B61FB687A69134001
:108AB00009D10E4B1B687A6913405A1E9341DAB2F2
:108AC0003B681A7008E00A4B1B687A6913405A1E0B
:108AD0009341DAB23B681A700023181CBD4606B0F9
:108AE00080BDC0466C2A0020842A0020742A002001
:108AF000782A002080B582B000AF021CFB1D1A70DE
:108B0000064BFA1D1278111C1F220A400121081C75
:108B10009040021C1A60BD4602B080BD00E100E03A
:108B200080B582B000AF021CFB1D1A70084AFB1D05
:108B30001B78191C1F230B400121081C9840031CA3
:108B4000191CC0235B00D150BD4602B080BDC04699
:108B500000E100E0B0B582B000AF021C3960FB1D3F
:108B60001A70FB1D1B787F2B32D93049FB1D1B78F7
:108B70001A1C0F231340083B98082C4AFB1D1B7836
:108B80001C1C0F232340083B9B0806339B00D31873
:108B90005B68FA1D1278141C03222240D200FF24C5
:108BA000251C95402A1CD2431A403B689C01FF2398
:108BB0001C40FB1D1B781D1C03232B40DB00251CC8
:108BC0009D402B1C1A43831D9B00CB185A6029E043
:108BD000174BFA1D127852B292081549F81D007809
:108BE00040B28008C03080004158F81D0078041C55
:108BF00003202040C000FF24251C8540281CC043C2
:108C0000084039688C01FF210C40F91D09780D1CC2
:108C100003212940C900251C8D40291C0143C03275
:108C20009200D150BD4602B0B0BDC04600ED00E09C
:108C300000E100E080B582B000AF7860A023DB05E2
:108C40007A68C132FF3292000121D150BD4602B094
:108C500080BDC04680B582B000AF78600A1CFB1CA6
:108C60001A70A023DB05FA1C12789200111C7A6896
:108C7000C132FF329200D150BD4602B080BDC04625
:108C800080B582B000AF7860FB1C1970BB1C1A70F5
:108C9000A023DB05BA1C12781204111CFA1C1278EE
:108CA000920011437A68C132FF329200D150BD4622
:108CB00002B080BD80B500AF074B00221A70074B91
:108CC0000122DA60054B01225A60044AA023DB002E
:108CD0000021D150BD4680BDB82A002000200040B0
:108CE00080B582B000AF084B0122DA60074B012249
:108CF0001A703B1C03221A70054B1B683A1C101C8F
:108D00009847BD4602B080BD00200040B82A002030
:108D1000B42A002080B582B000AF154B1B78DBB2BF
:108D2000022B02D0134B01229A60134AFB1D101C28
:108D3000191CFDF787FF031C002B02D0FFF7D0FFA3
:108D400012E00C4AC2239B008021D150094AFB1D2E
:108D50001B78191C094BD150054B02221A70054A89
:108D6000C1239B008021D150BD4602B080BDC046CA
:108D7000B82A0020002000409C2A00201C0500008A
:108D800080B500AF064BDA68054B9B689A4202D06B
:108D9000FFF7C0FF01E0FFF7A3FFBD4680BDC0465F
:108DA0009C2A002080B500AF084B1B78DBB2012B5A
:108DB00002D0022B03D006E0FFF77CFF03E0034B59
:108DC00003221A70C046BD4680BDC046B82A0020A6
:108DD00080B500AF114B1B78DBB2002B02D0032B08
:108DE00015D018E00E4AA023DB000421D1500C4B13
:108DF00001221A600B4BDA680A4B9B689A4202D038
:108E0000FFF788FF07E0054B01221A7003E0034BD0
:108E100002221A70C046BD4680BDC046B82A002056
:108E2000002000409C2A002080B500AF094B1B7831
:108E3000DBB2012B0ADB022B05DD032B00D005E0A2
:108E4000FFF738FF03E0FFF79BFF00E0C046BD4699
:108E500080BDC046B82A002080B500AF044B1B7807
:108E6000DBB2012B01D1FFF755FFBD4680BDC046E7
:108E7000B82A002080B500AFFFF71CFFBD4680BDBB
:108E800080B582B000AF021CFB1D1A70FB1D1B7861
:108E9000042B13D89A000B4BD3181B689F46FFF77F
:108EA00081FF0CE0FFF794FF09E0FFF7BDFF06E04C
:108EB000FFF7D2FF03E0FFF7DDFF00E0C046BD464D
:108EC00002B080BD8012020080B584B000AF78602F
:108ED00039603B687A681A40164B1B68134015D0FE
:108EE000154B1A783B1C0833101C191CFEF72EFA80
:108EF000031CFB60FB68002B19D1BA687B68134028
:108F00007B60BB68DA433B6813403B60094B1B68DE
:108F10003A68134003D00120FFF7B2FF07E0054B8A
:108F20001B687A68134002D00020FFF7A9FFBD46F6
:108F300004B080BDB02A0020AC2A002080B588B0E3
:108F400000AF354A84235B00D358002B33D0324A1C
:108F500084235B000021D1502F4AA323DB00D35888
:108F6000DBB22E4A101C191CFDF744FE031CFB61EA
:108F7000FB69002B0ED03B1C103301221A703B1CE6
:108F80001033FA695A60264B1B683A1C1032101CC9
:108F9000984710E0214BDA68204B9B68D31A012BCD
:108FA00009D13B1C083300221A701D4B1B683A1C68
:108FB0000832101C9847184A8E235B00D358002BA8
:108FC00007D0154A8E235B000021D1500320FFF704
:108FD00057FF114A92235B00D358002B19D00E4A39
:108FE00092235B000021D1500B4A9023DB00D35821
:108FF000BB61094A9023DB00B969D1503B1C0222B6
:109000001A703B1CBA695A60054B1B683A1C101C4D
:109010009847BD4608B080BD002000408C2A002043
:10902000B42A002080B500AF164AA023DB0004213B
:10903000D150144A84235B000021D150114A8E2361
:109040005B000021D1500F4A0E490F4BCB58012134
:10905000181C8843011C0C4BD1500A4AA123DB0089
:1090600001214942D150074AA223DB000121494294
:10907000D150044B01229A60024B01221A60BD4676
:1090800080BDC046002000406C05000080B582B065
:1090900000AF7860164AA023DB000421D150144AA7
:1090A00084235B000021D150114A8E235B000021F4
:1090B000D1500F4A0E490F4BCB58012119430D4B8C
:1090C000D1500B4A7B68DB78191CA223DB00D150FE
:1090D000074A7B689B78191CA123DB00D150044B05
:1090E00001229A60024B01221A60BD4602B080BD87
:1090F000002000406C05000080B588B000AFF8602B
:10910000B9607A601A1CFB1C1A700023FB610023F3
:10911000BB619E4B00221A709D4B7A681A60BB6837
:10912000002B01D107232DE1BB681A68BB685B687F
:109130009BB29849081C111C1A1CFDF72DFD031C3D
:109140007B617B69002B01D07B691BE1BB689A685E
:10915000BB68DB689BB29049081C111C1A1CFDF708
:109160001BFD031C7B617B69002B01D07B6909E13E
:10917000FB685B78181CFFF75DFDFB681B78181C0B
:109180000021FFF767FD854AFB685B78191C844B5B
:10919000D150824AFB681B78191C824BD1507F4A00
:1091A000FB689968804BD150FB685B79002B04D039
:1091B0007A4A7E4B0E21D15003E0784A7B4B002146
:1091C000D150FB681B79022B00D097E0FB689B789D
:1091D000181CFFF72FFDA023DA05FB689B780121FF
:1091E000081C9840031C191C714BD1506B4AA223D8
:1091F000DB0001214942D150684AFB689B78191C69
:10920000A123DB00D150654A6449684BCB5801214A
:109210001943664BD150FB68DB780122111C994041
:109220000B1C1A1C634B1A60FB68DB78181C0021AE
:109230000322FFF725FDFB68DB780122101C984014
:10924000031CFB61FB68DB780122111C99400B1C9D
:10925000BB61BB6A1B88002B17D15748F969BA69F3
:10926000564BFDF727FF031C7B617B69002B01D068
:109270007B6987E0504B1B781B029BB2FF22134394
:109280009BB29AB2BB6A1A800CE0BB6A1B88FE2BA9
:1092900001D8072376E0BB6A1B881B0A9BB2DAB2AF
:1092A000454B1A70444B1A783B1C1033101C191C88
:1092B000FEF74CF8031C7B617B69002B01D07B69B6
:1092C00060E03D4B1B78181CFDF758FF031C7B61C9
:1092D0007B69002B01D07B6954E0FB68DB780122BD
:1092E000101C9840031C3A69134003D10120FFF77A
:1092F000C7FD2EE00020FFF7C3FD2AE0FB681B79C5
:10930000012B14D1BB6A1B88002B08D12C4B1B7876
:109310005A1CD1B22A4A11701A1CBB6A1A80FB6807
:10932000181CFFF7B3FE194B01221A7011E0BB6A3B
:109330001B88002B08D1224B1B785A1CD1B2204A23
:1093400011701A1CBB6A1A80FFF76CFE0F4B0122CA
:109350001A70124AC2239B0001214942D1500F4A80
:10936000C1239B00A1218900D1500220FFF7D8FB27
:10937000FB1C1B780220191CFFF7ECFB0220FFF7F7
:10938000B9FB0023181CBD4608B080BDB82A0020D8
:10939000B42A00208C2A00209C2A002000200040B3
:1093A0000C05000014050000240500006C050000F9
:1093B00004050000B02A0020AC2A0020C98E01005C
:1093C0000620002080B582B000AF7860054A7B6837
:1093D000101C191CFDF736FC031C181CBD4602B0FE
:1093E00080BDC0468C2A002080B584B000AF021C2E
:1093F000FB1D1A70084AFB1D1B78101C191CFDF779
:10940000F9FB031CFB600220FFF73AFDFB68181C08
:10941000BD4604B080BDC0469C2A002080B582B005
:1094200000AF0D4B181CFDF72FFC031C7B607B6805
:10943000002B01D07B680BE0084B181CFDF724FCC7
:10944000031C7B607B68002B01D07B6800E000235D
:10945000181CBD4602B080BD8C2A00209C2A00202A
:1094600080B582B000AF7860064B1B78DBB25A1E25
:109470009341DBB21A1C7B681A700023181CBD468E
:1094800002B080BDB82A002080B584B000AF021CB5
:10949000BB1D1A80BB1D1B88FE2B04D80420FFF7C0
:1094A000EFFC002317E03B1C0E33BA1D1288120A92
:1094B0001A800B4B1B783A1C0E3212889A4201D04C
:1094C000072308E00420FFF7DBFC054B1B78181C82
:1094D000FDF700FF031C181CBD4604B080BDC0464C
:1094E000AC2A002020DF7047181CC04621DF7047DF
:1094F000181CC04622DF7047181CC04623DF704787
:10950000181CC04624DF7047181CC04625DF704772
:10951000181CC04626DF7047181CC04627DF70475E
:10952000181CC04628DF7047181CC04629DF70474A
:10953000181CC0462ADF7047181CC0462BDF704736
:10954000181CC0462CDF7047181CC0462DDF704722
:10955000181CC0462EDF7047181CC0462FDF70470E
:10956000181CC04632DF7047181CC04633DF7047F6
:10957000181CC04630DF7047181CC04631DF7047EA
:10958000181CC04634DF7047181CC04635DF7047D2
:10959000181CC04636DF7047181CC04637DF7047BE
:1095A000181CC04638DF7047181CC04639DF7047AA
:1095B000181CC0463ADF7047181CC0463BDF704796
:1095C000181CC0463CDF7047181CC0463EDF704781
:1095D000181CC0463FDF7047181CC04640DF70476C
:1095E000181CC0463DDF7047181CC04641DF70475D
:1095F000181CC04642DF7047181CC04643DF704746
:10960000181CC04644DF7047181CC04645DF704731
:10961000181CC04646DF7047181CC04647DF70471D
:10962000181CC04648DF7047181CC04649DF704709
:10963000181CC0464ADF7047181CC0464EDF7047F2
:10964000181CC0464FDF7047181CC04651DF7047DA
:10965000181CC04650DF7047181CC04652DF7047C8
:10966000181CC04610DF7047181CC04611DF704739
:10967000181CC04612DF7047181CC04613DF704725
:10968000181CC04680B582B000AF78607A680323AA
:1096900013405A425341DBB2181CBD4602B080BD94
:1096A00070DF7047181CC04671DF7047181CC04639
:1096B00072DF7047181CC04673DF7047181CC04625
:1096C00074DF7047181CC04675DF7047181CC04611
:1096D00076DF7047181CC04677DF7047181CC046FD
:1096E00078DF7047181CC04679DF7047181CC046E9
:1096F0007ADF7047181CC0467BDF7047181CC046D5
:109700007CDF7047181CC0467DDF7047181CC046C0
:109710007EDF7047181CC0467FDF7047181CC046AC
:1097200080DF7047181CC04681DF7047181CC04698
:1097300082DF7047181CC04683DF7047181CC04684
:1097400084DF7047181CC046B0DF7047181CC04645
:10975000B1DF7047181CC046B2DF7047181CC04606
:1097600090DF7047181CC04691DF7047181CC04638
:1097700092DF7047181CC04693DF7047181CC04624
:1097800094DF7047181CC04695DF7047181CC04610
:1097900096DF7047181CC04697DF7047181CC046FC
:1097A00098DF7047181CC046A0DF7047181CC046E1
:1097B000A1DF7047181CC046A2DF7047181CC046C6
:1097C000A3DF7047181CC046A4DF7047181CC046B2
:1097D000A5DF7047181CC046A6DF7047181CC0469E
:1097E000A7DF7047181CC046A8DF7047181CC0468A
:1097F000A9DF7047181CC046AADF7047181CC04676
:1098000060DF7047181CC04661DF7047181CC046F7
:1098100062DF7047181CC04663DF7047181CC046E3
:1098200064DF7047181CC04665DF7047181CC046CF
:1098300066DF7047181CC04680B584B000AFF86082
:109840007A603B1C0A330A1C1A803B1C0A331A88B4
:109850007B68101C191CFBF7F7FBBD4604B080BDEC
:1098600080B584B000AF3D4B1B78DBB20122534082
:10987000DBB2002B00D06DE0394B1A683B1C0F3374
:1098800051424A411A70374B1A683B1C0E33514201
:109890004A411A703B1C0F331B7801225340DBB244
:1098A000002B1DD03B1D181CFFF7C8FE031CBB601E
:1098B000BB68052B04D13B1C0F3301221A700FE04B
:1098C000BB68002B07D0BA68274B101C69211A1CF3
:1098D000FBF7D6FB04E0224B1B687A68101C984704
:1098E0003B1C0E331B7801225340DBB2002B25D0EA
:1098F0001E4B1A88BB1C1A801D4B1A68BB1C101CFF
:10990000191CFFF77DFF031CBB60BB68052B04D14E
:109910003B1C0E3301221A7010E0BB68002B07D0ED
:10992000BA68114B101C80211A1CFBF7A9FB05E03B
:109930000C4B1A680E4B1B68181C90473B1C0F33CE
:109940001B78002B05D03B1C0E331B78002B00D05E
:1099500000E09FE7BD4604B080BDC046C62A002097
:10996000CC2A0020C82A002094120200C42A002019
:10997000C02A002080B586B000AFF860B9603B60B7
:10998000BB1D1A80BB68002B01D1072329E0BB68EF
:10999000181CFFF777FE031C01225340DBB2002B9B
:1099A00001D007231DE0114BBA681A60104BBA1D95
:1099B00012881A800F4B3A681A60FA680E4B101C16
:1099C000191CFFF74FFE031C7B617B69002B01D044
:1099D0007B6906E0094B01221A701620FFF78EFD05
:1099E000031C181CBD4606B080BDC046C02A00201E
:1099F000C42A0020BC2A002039980100C62A002071
:109A000080B582B000AFFFF731FE031C7B607B683E
:109A10005A1E9341DAB2034B1A707B68181CBD467C
:109A200002B080BDC62A002080B582B000AF786049
:109A30007B68002B01D10E2303E0044B7A681A6087
:109A40000023181CBD4602B080BDC046C82A0020B5
:109A500080B582B000AF78607B68002B01D10E2307
:109A600003E0044B7A681A600023181CBD4602B05C
:109A700080BDC046CC2A002080B582B000AF0F4B1D
:109A80001B68002B14D00D4B1B689847031C7B6090
:109A90007B683B603B68002B09D0396899235A00EA
:109AA000074B081C111C1A1CFBF7EAFA02E001E044
:109AB000FFF7D6FEBD4602B080BDC046BC2A0020DE
:109AC0009412020070DF7047181CC04671DF7047A7
:109AD000181CC04672DF7047181CC04673DF704701
